{
  "address": "0xe7f1725E7734CE288F8367e1Bb143E90bb3F0512",
  "abi": [
    {
      "inputs": [
        {
          "internalType": "address",
          "name": "prideFeedAddress",
          "type": "address"
        }
      ],
      "stateMutability": "nonpayable",
      "type": "constructor"
    },
    {
      "inputs": [],
      "name": "USD_MINIMUM",
      "outputs": [
        {
          "internalType": "uint256",
          "name": "",
          "type": "uint256"
        }
      ],
      "stateMutability": "view",
      "type": "function"
    },
    {
      "inputs": [],
      "name": "fund",
      "outputs": [],
      "stateMutability": "payable",
      "type": "function"
    },
    {
      "inputs": [
        {
          "internalType": "uint256",
          "name": "",
          "type": "uint256"
        }
      ],
      "name": "fundedList",
      "outputs": [
        {
          "internalType": "address",
          "name": "",
          "type": "address"
        }
      ],
      "stateMutability": "view",
      "type": "function"
    },
    {
      "inputs": [],
      "name": "i_owner",
      "outputs": [
        {
          "internalType": "address",
          "name": "",
          "type": "address"
        }
      ],
      "stateMutability": "view",
      "type": "function"
    },
    {
      "inputs": [],
      "name": "priceFeed",
      "outputs": [
        {
          "internalType": "contract AggregatorV3Interface",
          "name": "",
          "type": "address"
        }
      ],
      "stateMutability": "view",
      "type": "function"
    },
    {
      "inputs": [],
      "name": "withdraw",
      "outputs": [],
      "stateMutability": "nonpayable",
      "type": "function"
    }
  ],
  "transactionHash": "0xb5573870849ba99792dabc67999003ae8d07c5458cf505f573f3571bd94c6b76",
  "args": [
    "0x5FbDB2315678afecb367f032d93F642f64180aa3"
  ],
  "numDeployments": 1,
  "solcInputHash": "1fab73de0031996b008bfe5c7201afe0",
  "bytecode": "0x60a060405234801561001057600080fd5b50604051610bc2380380610bc28339818101604052810190610032919061010f565b3373ffffffffffffffffffffffffffffffffffffffff1660808173ffffffffffffffffffffffffffffffffffffffff1681525050806000806101000a81548173ffffffffffffffffffffffffffffffffffffffff021916908373ffffffffffffffffffffffffffffffffffffffff1602179055505061013c565b600080fd5b600073ffffffffffffffffffffffffffffffffffffffff82169050919050565b60006100dc826100b1565b9050919050565b6100ec816100d1565b81146100f757600080fd5b50565b600081519050610109816100e3565b92915050565b600060208284031215610125576101246100ac565b5b6000610133848285016100fa565b91505092915050565b608051610a6461015e6000396000818161018701526103cb0152610a646000f3fe6080604052600436106100555760003560e01c8063173fa47a1461005a5780632ed3cf1c146100855780633ccfd60b146100c2578063741bef1a146100d9578063b60d428814610104578063dba6335f1461010e575b600080fd5b34801561006657600080fd5b5061006f610139565b60405161007c91906104cd565b60405180910390f35b34801561009157600080fd5b506100ac60048036038101906100a79190610519565b610146565b6040516100b99190610587565b60405180910390f35b3480156100ce57600080fd5b506100d7610185565b005b3480156100e557600080fd5b506100ee6102c2565b6040516100fb9190610601565b60405180910390f35b61010c6102e6565b005b34801561011a57600080fd5b506101236103c9565b6040516101309190610587565b60405180910390f35b6802b5e3af16b188000081565b6001818154811061015657600080fd5b906000526020600020016000915054906101000a900473ffffffffffffffffffffffffffffffffffffffff1681565b7f000000000000000000000000000000000000000000000000000000000000000073ffffffffffffffffffffffffffffffffffffffff163373ffffffffffffffffffffffffffffffffffffffff1614610213576040517f08c379a000000000000000000000000000000000000000000000000000000000815260040161020a90610679565b60405180910390fd5b60003373ffffffffffffffffffffffffffffffffffffffff1647604051610239906106ca565b60006040518083038185875af1925050503d8060008114610276576040519150601f19603f3d011682016040523d82523d6000602084013e61027b565b606091505b50509050806102bf576040517f08c379a00000000000000000000000000000000000000000000000000000000081526004016102b690610751565b60405180910390fd5b50565b60008054906101000a900473ffffffffffffffffffffffffffffffffffffffff1681565b6802b5e3af16b188000061032360008054906101000a900473ffffffffffffffffffffffffffffffffffffffff16346103ed90919063ffffffff16565b1015610364576040517f08c379a000000000000000000000000000000000000000000000000000000000815260040161035b906107bd565b60405180910390fd5b6001339080600181540180825580915050600190039060005260206000200160009091909190916101000a81548173ffffffffffffffffffffffffffffffffffffffff021916908373ffffffffffffffffffffffffffffffffffffffff160217905550565b7f000000000000000000000000000000000000000000000000000000000000000081565b6000806103f983610423565b9050670de0b6b3a76400008482610410919061080c565b61041a919061087d565b91505092915050565b6000808273ffffffffffffffffffffffffffffffffffffffff1663feaf968c6040518163ffffffff1660e01b815260040160a060405180830381865afa158015610471573d6000803e3d6000fd5b505050506040513d601f19601f82011682018060405250810190610495919061093b565b5050509150506402540be400816104ac91906109b6565b915050919050565b6000819050919050565b6104c7816104b4565b82525050565b60006020820190506104e260008301846104be565b92915050565b600080fd5b6104f6816104b4565b811461050157600080fd5b50565b600081359050610513816104ed565b92915050565b60006020828403121561052f5761052e6104e8565b5b600061053d84828501610504565b91505092915050565b600073ffffffffffffffffffffffffffffffffffffffff82169050919050565b600061057182610546565b9050919050565b61058181610566565b82525050565b600060208201905061059c6000830184610578565b92915050565b6000819050919050565b60006105c76105c26105bd84610546565b6105a2565b610546565b9050919050565b60006105d9826105ac565b9050919050565b60006105eb826105ce565b9050919050565b6105fb816105e0565b82525050565b600060208201905061061660008301846105f2565b92915050565b600082825260208201905092915050565b7f4f6e6c79206f776e65722063616e207769746864726177000000000000000000600082015250565b600061066360178361061c565b915061066e8261062d565b602082019050919050565b6000602082019050818103600083015261069281610656565b9050919050565b600081905092915050565b50565b60006106b4600083610699565b91506106bf826106a4565b600082019050919050565b60006106d5826106a7565b9150819050919050565b7f4572726f72206f63637572656420696e207769746864726177696e672066756e60008201527f6473000000000000000000000000000000000000000000000000000000000000602082015250565b600061073b60228361061c565b9150610746826106df565b604082019050919050565b6000602082019050818103600083015261076a8161072e565b9050919050565b7f4e6f7420656e6f7567682066756e647300000000000000000000000000000000600082015250565b60006107a760108361061c565b91506107b282610771565b602082019050919050565b600060208201905081810360008301526107d68161079a565b9050919050565b7f4e487b7100000000000000000000000000000000000000000000000000000000600052601160045260246000fd5b6000610817826104b4565b9150610822836104b4565b9250828202610830816104b4565b91508282048414831517610847576108466107dd565b5b5092915050565b7f4e487b7100000000000000000000000000000000000000000000000000000000600052601260045260246000fd5b6000610888826104b4565b9150610893836104b4565b9250826108a3576108a261084e565b5b828204905092915050565b600069ffffffffffffffffffff82169050919050565b6108cd816108ae565b81146108d857600080fd5b50565b6000815190506108ea816108c4565b92915050565b6000819050919050565b610903816108f0565b811461090e57600080fd5b50565b600081519050610920816108fa565b92915050565b600081519050610935816104ed565b92915050565b600080600080600060a08688031215610957576109566104e8565b5b6000610965888289016108db565b955050602061097688828901610911565b945050604061098788828901610926565b935050606061099888828901610926565b92505060806109a9888289016108db565b9150509295509295909350565b60006109c1826108f0565b91506109cc836108f0565b92508282026109da816108f0565b91507f80000000000000000000000000000000000000000000000000000000000000008414600084121615610a1257610a116107dd565b5b8282058414831517610a2757610a266107dd565b5b509291505056fea2646970667358221220a0c6e8eadbf18ca85800fae4d2f666b5910130fbded5a805f3a5c47c63f7f14e64736f6c634300081c0033",
  "devdoc": {
    "kind": "dev",
    "methods": {},
    "version": 1
  },
  "userdoc": {
    "kind": "user",
    "methods": {},
    "version": 1
  },
  "storageLayout": {
    "storage": [
      {
        "astId": 54,
        "contract": "contracts/FundMe.sol:FundMe",
        "label": "priceFeed",
        "offset": 0,
        "slot": "0",
        "type": "t_contract(AggregatorV3Interface)45"
      },
      {
        "astId": 59,
        "contract": "contracts/FundMe.sol:FundMe",
        "label": "fundedList",
        "offset": 0,
        "slot": "1",
        "type": "t_array(t_address)dyn_storage"
      }
    ],
    "types": {
      "t_address": {
        "encoding": "inplace",
        "label": "address",
        "numberOfBytes": "20"
      },
      "t_array(t_address)dyn_storage": {
        "base": "t_address",
        "encoding": "dynamic_array",
        "label": "address[]",
        "numberOfBytes": "32"
      },
      "t_contract(AggregatorV3Interface)45": {
        "encoding": "inplace",
        "label": "contract AggregatorV3Interface",
        "numberOfBytes": "20"
      }
    }
  }
}